S01600007765617468657253746174696F6E2E737265633C
S11300000C9434000C9451000C9451000C94510045
S11300100C9451000C9451000C9451000C94510018
S11300200C9451000C9451000C9451000C94510008
S11300300C9451000C946E010C9451000C945100DA
S11300400C9451000C9451000C9484030C94B2034E
S11300500C9451000C944C020C9451000C945100DB
S11300600C9451000C94510011241FBECFEFD8E022
S1130070DEBFCDBF11E0A0E0B1E0E0EAF8E002C0ED
S113008005900D92A234B107D9F721E0A2E4B1E0C2
S113009001C01D92A838B207E1F70E941B010C941D
S11300A04E040C940000FC01408121E030E002C0C9
S11300B0220F331F6A95E2F7242B20830895FC0155
S11300C0908121E030E002C0220F331F6A95E2F7ED
S11300D02095292320830895FC01408121E030E00C
S11300E002C0220F331F6A95E2F7242B2083089560
S11300F0299A85E08A95F1F7000029980895CF930D
S1130100C82F662311F0289A01C02898549A559A4A
S1130110569A579A5F985E985D985C98CC230CF435
S11301205F9AC6FD5E9AC5FD5D9AC4FD5C9A0E9405
S113013078005F985E985D985C98C3FD5F9AC2FDF5
S11301405E9AC1FD5D9AC0FD5C9A0E9478005C9A3B
S11301505D9A5E9A5F9A87EB9BE00197F1F700C086
S11301600000CF91089560E00E947F00089561111E
S113017004C080580E94B300089580540E94B300C4
S1130180089581E00E94B300089561E00E947F0019
S11301900895CF93DF93EC012196FC01808188239D
S11301A029F00E94C50089918111FBCFDF91CF9185
S11301B00895CF93C82F209A559A219A549A559A04
S11301C0569A579A8FEF99EF0197F1F700C0000004
S11301D05D9A5C9A0E9478008FE19EE40197F1F7A2
S11301E000C000000E9478008FEF90E00197F1F7C3
S11301F000C000000E9478008FEF90E00197F1F7B3
S113020000C000005C980E9478008FEF90E0019796
S1130210F1F700C0000088E20E94B30088E00E9469
S1130220B3000E94C10086E00E94B3008C2F0E949C
S1130230B300CF9108950E94320387E690E00E94B4
S1130240DC0381E091E00E940A04E1E8F0E08081AF
S11302508B7F8083808183608083EFE6F0E0808100
S1130260816080838CE00E94D90060E080E00E947D
S1130270B7008FE191E00E94C90061E080E00E9434
S1130280B70084E291E00E94C9007894ECE7F0E0C2
S113029080818064808380818E7F8083EAE7F0E0C0
S11302A0808180688083808188608083808187608A
S11302B0808365E084E290E00E94530065E085E27B
S11302C090E00E945F0064E084E290E00E945300AA
S11302D064E085E290E00E945F00FFCF1F920F92DE
S11302E00FB60F9211242F933F934F935F936F9305
S11302F07F938F939F93AF93BF93EF93FF93CF938A
S1130300DF93CDB7DEB72897DEBFCDBF80E290E2A2
S11303109A8389831C821B82FE01359684E0DF0167
S11303201D928A95E9F780910001823049F083306B
S1130330E9F0813009F094C082E08093000193C019
S113034089E291E00E940A0488EB0E9441038091B3
S113035042010E945F03809142018C5F80934201BD
S11303600E94800383E0809300017DC089EB0E949A
S113037041030E946A034AE0BE016F5F7F4F90E031
S11303800E94190460E086E00E94B700CE01019645
S11303900E94C900CE0101960E940A0481E391E003
S11303A00E94C90081E391E00E940A040E946A034A
S11303B04AE0BE016F5F7F4F90E00E941904CE01B6
S11303C001960E94C900CE0101960E940A0483E3AB
S11303D091E00E94C90085E391E00E940A040E9412
S11303E06A034AE0BE016F5F7F4F90E00E941904E8
S11303F061E086E00E94B700CE0101960E94C90028
S1130400CE0101960E940A0481E391E00E94C90092
S113041081E391E00E940A040E9475034AE0BE0150
S11304206F5F7F4F90E00E941904CE0101960E94F5
S1130430C900CE0101960E940A0488E391E00E945B
S1130440C9008AE391E00E940A040E948003EAE75B
S1130450F0E080818064808381E08093000103C0A8
S113046081E08093000128960FB6F894DEBF0FBE9A
S1130470CDBFDF91CF91FF91EF91BF91AF919F914C
S11304808F917F916F915F914F913F912F910F9039
S11304900FBE0F901F9018951F920F920FB60F92D8
S11304A011240F931F932F933F934F935F936F9355
S11304B07F938F939F93AF93BF93EF93FF93CF93C8
S11304C0DF9300D000D0CDB7DEB780E390E39A830A
S11304D089839C838B8300917800109179004AE092
S11304E0BE016F5F7F4FC8010E94190460E08CE079
S11304F00E94B7008DE391E00E94C90060E08CE0A7
S11305000E94B700CE0101960E94C900CE01019657
S11305100E940A040D3221E01207D0F465E085E25E
S113052090E00E946C008FE99FE00197F1F700C012
S1130530000065E085E290E00E945F009FE72DEEF9
S113054080E0915020408040E1F700C0000039C0B5
S1130550C8018D5291408C329140D0F465E085E21F
S113056090E00E946C008FE697E10197F1F700C0DC
S1130570000065E085E290E00E945F009FE327EEC3
S113058080E0915020408040E1F700C0000019C095
S113059065E085E290E00E946C008FE39FE10197A3
S11305A0F1F700C0000065E085E290E00E945F0082
S11305B09FEF20EE80E0915020408040E1F700C0A2
S11305C0000001501109043F1140D0F464E085E2B9
S11305D090E00E946C008FE697E10197F1F700C06C
S11305E0000064E085E290E00E945F009FE327EE54
S11305F080E0915020408040E1F700C0000019C025
S113060064E085E290E00E946C008FE39FE1019733
S1130610F1F700C0000064E085E290E00E945F0012
S11306209FEF20EE80E0915020408040E1F700C031
S113063000000F900F900F900F90DF91CF91FF91DA
S1130640EF91BF91AF919F918F917F916F915F9146
S11306504F913F912F911F910F910F900FBE0F90CB
S11306601F90189587B18F7C87B988B1806388B94A
S1130670E9EBF0E080818C7F808388E98093B80087
S1130680089594EA9093BC00ECEBF0E090819923F8
S1130690ECF78093BB0084E88093BC00ECEBF0E0C3
S11306A080818823ECF79091B900987F983129F0E4
S11306B081E0903419F480E0089580E008958093F7
S11306C0BB0084E88093BC00ECEBF0E080818823DD
S11306D0ECF7089584EC8093BC00ECEBF0E08081AF
S11306E08823ECF78091BB00089584E88093BC00D4
S11306F0ECEBF0E080818823ECF78091BB00089557
S113070084E98093BC0008951F920F920FB60F9254
S113071011242F938F939F93EF93FF938091C000A5
S11307202091C6008C71E0914501EF5FEF719091CB
S11307304401E91739F0E0934501F0E0E85BFE4F2E
S1130740208301C082E090914301892B809343016F
S1130750FF91EF919F918F912F910F900FBE0F906A
S11307601F9018951F920F920FB60F9211248F931A
S11307709F93EF93FF9390914701809146019817BF
S113078069F0E0914601EF5FEF71E0934601F0E01C
S1130790E859FE4F80818093C60005C0E1ECF0E08B
S11307A080818F7D8083FF91EF919F918F910F9036
S11307B00FBE0F901F90189510924701109246019A
S11307C0109245011092440199231CF422E02093D5
S11307D0C00090789093C5008093C40088E980930A
S11307E0C10086E08093C2000895209147012F5FE5
S11307F02F71909146012917E1F3E22FF0E0E859B7
S1130800FE4F808320934701E1ECF0E08081806219
S113081080830895CF93DF93EC018881882331F09E
S113082021960E94F50389918111FBCFDF91CF912D
S11308300895BB274A3031F4992322F4BDE2909500
S113084081959F4F0C942504BB27FB015527AA27AC
S1130850880F991FAA1FA41710F0A41B8395505149
S1130860B9F7A05DAA3308F0A95DA193009779F7C1
S1130870B111B1931192CB010C943E04DC01FC0143
S1130880672F71917723E1F7329704C07C916D93C0
S113089070836291AE17BF07C8F30895F894FFCF31
S11308A0010D0A5363616E204932432D6275732032
S11308B0666F7220646576696365733A0D0A004851
S11308C0756D3A0054656D3A0053544154450A0A13
S11308D0002E002500250A004300430A00202020A2
S10508E02000F2
S9030000FC
