S00F0000707275656261732E7372656323
S11300000C9434000C9451000C9451000C94510045
S11300100C9451000C9451000C9451000C94510018
S11300200C9451000C9451000C9451000C94510008
S11300300C9451000C9487010C9451000C945100C1
S11300400C9451000C9451000C94F9020C94270365
S11300500C9451000C9465020C9451000C945100C2
S11300600C9451000C94510011241FBECFEFD8E022
S1130070DEBFCDBF11E0A0E0B1E0EAE8F7E002C0E6
S113008005900D92AA33B107D9F721E0AAE3B1E0B4
S113009001C01D92A038B207E1F70E9448010C94F8
S11300A0C3030C94000085B1826085B985E08A950C
S11300B0F1F7000085B18D7F85B90895CF93C82FDE
S11300C0662321F085B1816085B903C085B18E7F37
S11300D085B98AB180618AB98AB180628AB98AB1E4
S11300E080648AB98AB180688AB98BB18F778BB9F9
S11300F08BB18F7B8BB98BB18F7D8BB98BB18F7E9D
S11301008BB9CC231CF48BB180688BB9C6FF03C0B8
S11301108BB180648BB9C5FF03C08BB180628BB98E
S1130120C4FF03C08BB180618BB90E9453008BB1B3
S11301308F778BB98BB18F7B8BB98BB18F7D8BB95B
S11301408BB18F7E8BB9C3FF03C08BB180688BB931
S1130150C2FF03C08BB180648BB9C1FF03C08BB1F4
S113016080628BB9C0FF03C08BB180618BB90E94E0
S113017053008BB180618BB98BB180628BB98BB129
S113018080648BB98BB180688BB987EB9BE0019756
S1130190F1F700C00000CF91089560E00E945E0076
S11301A00895611104C080580E94CD0008958054C0
S11301B00E94CD00089581E00E94CD00089561E081
S11301C00E945E000895CF93DF93FC0103C00E9458
S11301D0DF00FE01EF01219680818111F8CFDF91CC
S11301E0CF910895CF93C82F84B1816084B98AB127
S11301F080628AB984B1826084B98AB180618AB923
S11302008AB180628AB98AB180648AB98AB1806805
S11302108AB98FEF99EF0197F1F700C000008BB115
S113022080628BB98BB180618BB90E9453008FE1DE
S11302309EE40197F1F700C000000E9453008FEF85
S113024090E00197F1F700C000000E9453008FEF87
S113025090E00197F1F700C000008BB18F7E8BB95D
S11302600E9453008FEF90E00197F1F700C0000067
S113027088E20E94CD0088E00E94CD000E94DB004D
S113028086E00E94CD008C2F0E94CD00CF9108956E
S11302900E94AB0287E690E00E94510381E091E066
S11302A00E948103E1E8F0E080818B7F808380817C
S11302B083608083EFE6F0E08081816080838CE05E
S11302C00E94F20060E080E00E94D1008FE191E0A2
S11302D00E94E30061E080E00E94D10084E291E0AA
S11302E00E94E3007894ECE7F0E0808180648083EE
S11302F080818E7F8083EAE7F0E08081806880835C
S1130300808188608083808187608083FFCF1F9293
S11303100F920FB60F9211242F933F934F935F9335
S11303206F937F938F939F93AF93BF93EF93FF93B9
S1130330CF93DF93CDB7DEB72897DEBFCDBF80E282
S113034090E29A8389831C821B82FE01359684E0A5
S1130350DF011D928A95E9F780910001823049F00E
S11303608330E9F0813009F094C082E08093000189
S113037093C086E391E00E94810388EB0E94BA0255
S113038080913A010E94D70280913A018C5F809358
S11303903A010E94F50283E0809300017DC089EB5D
S11303A00E94BA020E94E1024AE0BE016F5F7F4FE1
S11303B090E00E948E0360E086E00E94D100CE01AE
S11303C001960E94E300CE0101960E94810389E216
S11303D091E00E94E30089E291E00E9481030E947F
S11303E0E1024AE0BE016F5F7F4F90E00E948E03FE
S11303F0CE0101960E94E300CE0101960E94810382
S11304008BE291E00E94E3008DE291E00E9481037F
S11304100E94E1024AE0BE016F5F7F4F90E00E94BC
S11304208E0361E086E00E94D100CE0101960E9415
S1130430E300CE0101960E94810389E291E00E94CB
S1130440E30089E291E00E9481030E94EB024AE00A
S1130450BE016F5F7F4F90E00E948E03CE01019634
S11304600E94E300CE0101960E94810380E391E0A3
S11304700E94E30082E391E00E9481030E94F5025E
S1130480EAE7F0E080818064808381E0809300016A
S113049003C081E08093000128960FB6F894DEBF74
S11304A00FBECDBFDF91CF91FF91EF91BF91AF917F
S11304B09F918F917F916F915F914F913F912F9178
S11304C00F900FBE0F901F9018951F920F920FB6AA
S11304D00F9211242F933F934F935F936F937F93C6
S11304E08F939F93AF93BF93EF93FF93CF93DF9338
S11304F000D000D0CDB7DEB780E390E39A83898340
S11305009C838B8380917800909179004AE0BE01AE
S11305106F5F7F4F0E948E03CE0101960E9481037C
S113052085E391E00E9481030F900F900F900F904C
S1130530DF91CF91FF91EF91BF91AF919F918F91F7
S11305407F916F915F914F913F912F910F900FBECB
S11305500F901F90189587B18F7C87B988B18063FD
S113056088B9E9EBF0E080818C7F808388E980930F
S1130570B800089594EA9093BC009091BC0099232C
S1130580E4F78093BB0084E88093BC008091BC00B6
S11305908823E4F78091B900887F883121F0803482
S11305A021F480E0089580E0089581E00895809327
S11305B0BB0084E88093BC008091BC008823E4F7EE
S11305C0089584EC8093BC008091BC008823E4F7F8
S11305D08091BB00089584E88093BC008091BC00A6
S11305E08823E4F78091BB00089584E98093BC00DC
S11305F008951F920F920FB60F9211242F938F9389
S11306009F93EF93FF938091C0002091C6008C715B
S1130610E0913D01EF5FEF7190913C01E91739F0F2
S1130620E0933D01F0E0E05CFE4F208301C082E0F6
S113063090913B01892B80933B01FF91EF919F9116
S11306408F912F910F900FBE0F901F9018951F92AE
S11306500F920FB60F9211248F939F93EF93FF93F2
S113066090913F0180913E01981769F0E0913E011D
S1130670EF5FEF71E0933E01F0E0E05AFE4F8081BE
S11306808093C60005C0E1ECF0E080818F7D80831B
S1130690FF91EF919F918F910F900FBE0F901F903C
S11306A0189510923F0110923E0110923D01109254
S11306B03C01282F392F33231CF422E02093C0005F
S11306C090789093C5008093C40088E98093C1001A
S11306D086E08093C200089520913F012F5F2F711F
S11306E090913E012917E1F3E22FF0E0E05AFE4F2A
S11306F0808320933F01E1ECF0E08081806280837D
S11307000895CF93DF93EC0103C021960E946C03FC
S113071088818111FACFDF91CF910895BB274A30A8
S113072031F4992322F4BDE2909581959F4F0C9466
S11307309A03BB27FB015527AA27880F991FAA1FD5
S1130740A41710F0A41B83955051B9F7A05DAA33E8
S113075008F0A95DA193009779F7B111B1931192B3
S1130760CB010C94B303DC01FC01672F7191772357
S1130770E1F7329704C07C916D9370836291AE1758
S10D0780BF07C8F30895F894FFCFF3
S113078A010D0A5363616E204932432D6275732049
S113079A666F7220646576696365733A0D0A004868
S11307AA756D3A0054656D3A002E002500250A003D
S10D07BA4300430A000A0A0A000083
S9030000FC
