S01600007765617468657253746174696F6E2E737265633C
S11300000C9434000C9451000C9451000C94510045
S11300100C9451000C9451000C9451000C94510018
S11300200C9451000C9451000C9451000C94510008
S11300300C9451000C946E010C9451000C945100DA
S11300400C9451000C9451000C9490030C94BE0336
S11300500C9451000C9458020C9451000C945100CF
S11300600C9451000C94510011241FBECFEFD8E022
S1130070DEBFCDBF11E0A0E0B1E0E8EBF8E002C0E4
S113008005900D92A635B107D9F721E0A6E5B1E0B8
S113009001C01D92AC39B207E1F70E941B010C9418
S11300A05A040C940000FC01408121E030E002C0BD
S11300B0220F331F6A95E2F7242B20830895FC0155
S11300C0908121E030E002C0220F331F6A95E2F7ED
S11300D02095292320830895FC01408121E030E00C
S11300E002C0220F331F6A95E2F7242B2083089560
S11300F0299A85E08A95F1F7000029980895CF930D
S1130100C82F662311F0289A01C02898549A559A4A
S1130110569A579A5F985E985D985C98CC230CF435
S11301205F9AC6FD5E9AC5FD5D9AC4FD5C9A0E9405
S113013078005F985E985D985C98C3FD5F9AC2FDF5
S11301405E9AC1FD5D9AC0FD5C9A0E9478005C9A3B
S11301505D9A5E9A5F9A87EB9BE00197F1F700C086
S11301600000CF91089560E00E947F00089561111E
S113017004C080580E94B300089580540E94B300C4
S1130180089581E00E94B300089561E00E947F0019
S11301900895CF93DF93EC012196FC01808188239D
S11301A029F00E94C50089918111FBCFDF91CF9185
S11301B00895CF93C82F209A559A219A549A559A04
S11301C0569A579A8FEF99EF0197F1F700C0000004
S11301D05D9A5C9A0E9478008FE19EE40197F1F7A2
S11301E000C000000E9478008FEF90E00197F1F7C3
S11301F000C000000E9478008FEF90E00197F1F7B3
S113020000C000005C980E9478008FEF90E0019796
S1130210F1F700C0000088E20E94B30088E00E9469
S1130220B3000E94C10086E00E94B3008C2F0E949C
S1130230B300CF9108950E943E0387E690E00E94A8
S1130240E80381E091E00E941604E1E8F0E0808197
S11302508B7F8083808183608083EFE6F0E0808100
S1130260816080838CE00E94D90060E080E00E947D
S1130270B7008FE191E00E94C90061E080E00E9434
S1130280B70084E291E00E94C9007894ECE7F0E0C2
S113029080818064808380818E7F8083EAE7F0E0C0
S11302A0808180688083808188608083808187608A
S11302B0808365E084E290E00E94530065E085E27B
S11302C090E00E945F0064E084E290E00E945300AA
S11302D064E085E290E00E945F00FFCF1F920F92DE
S11302E00FB60F9211242F933F934F935F936F9305
S11302F07F938F939F93AF93BF93EF93FF93CF938A
S1130300DF93CDB7DEB72897DEBFCDBF80E290E2A2
S11303109A8389831C821B82FE01359684E0DF0167
S11303201D928A95E9F789E291E00E941604809172
S11303300001823069F0833029F1813009F09CC0DA
S113034082E0809300018FE291E00E94160497C03E
S113035086E391E00E9416048DE391E00E94160466
S113036088EB0E944D03809156010E946B0380919B
S113037056018C5F809356010E948C0383E0809326
S113038000017DC089EB0E944D030E9476034AE080
S1130390BE016F5F7F4F90E00E94250460E086E01D
S11303A00E94B700CE0101960E94C900CE010196B9
S11303B00E94160485E491E00E94C90085E491E05E
S11303C00E9416040E9476034AE0BE016F5F7F4FCD
S11303D090E00E942504CE0101960E94C900CE013E
S11303E001960E94160487E491E00E94C90089E402
S11303F091E00E9416040E9476034AE0BE016F5FFA
S11304007F4F90E00E94250461E086E00E94B700DF
S1130410CE0101960E94C900CE0101960E941604E5
S113042085E491E00E94C90085E491E00E941604ED
S11304300E9481034AE0BE016F5F7F4F90E00E94FB
S11304402504CE0101960E94C900CE0101960E94A6
S113045016048CE491E00E94C9008EE491E00E94AD
S113046016040E948C03EAE7F0E0808180648083B4
S113047081E08093000103C081E08093000128960D
S11304800FB6F894DEBF0FBECDBFDF91CF91FF91C1
S1130490EF91BF91AF919F918F917F916F915F91F8
S11304A04F913F912F910F900FBE0F901F90189571
S11304B01F920F920FB60F9211240F931F932F9335
S11304C03F934F935F936F937F938F939F93AF93D8
S11304D0BF93EF93FF93CF93DF9300D000D0CDB7BA
S11304E0DEB780E390E39A8389839C838B830091B6
S11304F07800109179004AE0BE016F5F7F4FC80118
S11305000E94250460E08CE00E94B70081E591E040
S11305100E94C90060E08CE00E94B700CE01019601
S11305200E94C900CE0101960E9416040D3221E0FA
S11305301207D0F465E085E290E00E946C008FE938
S11305409FE00197F1F700C0000065E085E290E0CC
S11305500E945F009FE72DEE80E091502040804094
S1130560E1F700C0000039C0C8018D5291408C32BF
S11305709140D0F465E085E290E00E946C008FE643
S113058097E10197F1F700C0000065E085E290E093
S11305900E945F009FE327EE80E09150204080405E
S11305A0E1F700C0000019C065E085E290E00E9418
S11305B06C008FE39FE10197F1F700C0000065E054
S11305C085E290E00E945F009FEF20EE80E0915072
S11305D020408040E1F700C0000001501109043FB1
S11305E01140D0F464E085E290E00E946C008FE654
S11305F097E10197F1F700C0000064E085E290E024
S11306000E945F009FE327EE80E0915020408040ED
S1130610E1F700C0000019C064E085E290E00E94A8
S11306206C008FE39FE10197F1F700C0000064E0E4
S113063085E290E00E945F009FEF20EE80E0915001
S113064020408040E1F700C000000F900F900F9011
S11306500F90DF91CF91FF91EF91BF91AF919F9157
S11306608F917F916F915F914F913F912F911F9146
S11306700F910F900FBE0F901F90189587B18F7C2C
S113068087B988B1806388B9E9EBF0E080818C7F19
S1130690808388E98093B800089594EA9093BC001D
S11306A0ECEBF0E090819923ECF78093BB0084E8B5
S11306B08093BC00ECEBF0E080818823ECF7909110
S11306C0B900987F983129F081E0903419F480E0E2
S11306D0089580E008958093BB0084E88093BC0073
S11306E0ECEBF0E080818823ECF7089584EC8093B0
S11306F0BC00ECEBF0E080818823ECF78091BB0038
S1130700089584E88093BC00ECEBF0E080818823BA
S1130710ECF78091BB00089584E98093BC000895B0
S11307201F920F920FB60F9211242F938F939F93C2
S1130730EF93FF938091C0002091C6008C71E091EB
S11307405901EF5FEF7190915801E91739F0E09387
S11307505901F0E0E45AFE4F208301C082E09091F9
S11307605701892B80935701FF91EF919F918F91AE
S11307702F910F900FBE0F901F9018951F920F92FC
S11307800FB60F9211248F939F93EF93FF93909141
S11307905B0180915A01981769F0E0915A01EF5F6B
S11307A0EF71E0935A01F0E0E458FE4F80818093AA
S11307B0C60005C0E1ECF0E080818F7D8083FF916D
S11307C0EF919F918F910F900FBE0F901F901895EE
S11307D010925B0110925A01109259011092580123
S11307E099231CF422E02093C00090789093C500D4
S11307F08093C40088E98093C10086E08093C2009E
S1130800089520915B012F5F2F7190915A01291750
S1130810E1F3E22FF0E0E458FE4F808320935B0184
S1130820E1ECF0E08081806280830895CF93DF93D0
S1130830EC018881882331F021960E94010489917A
S11308408111FBCFDF91CF910895BB274A3031F45A
S1130850992322F4BDE2909581959F4F0C94310425
S1130860BB27FB015527AA27880F991FAA1FA41786
S113087010F0A41B83955051B9F7A05DAA3308F07A
S1130880A95DA193009779F7B111B1931192CB01AE
S11308900C944A04DC01FC01672F71917723E1F782
S11308A0329704C07C916D9370836291AE17BF0739
S10B08B0C8F30895F894FFCF8A
S11308B8010D0A5363616E204932432D627573201A
S11308C8666F7220646576696365733A0D0A004839
S11308D8756D3A0054656D3A006A616D6F6E006A11
S11308E8616D6F6E32006A616D6F6E3300535441EF
S11308F854450A0A002E002500250A004300430A2D
S109090800202020200065
S9030000FC
