S01600007765617468657253746174696F6E2E737265633C
S11300000C9434000C9451000C9451000C94510045
S11300100C9451000C9451000C9451000C94510018
S11300200C9451000C9451000C9451000C94510008
S11300300C9451000C945F010C9451000C945100E9
S11300400C9451000C9451000C9440030C946E03D6
S11300500C9451000C940C020C9451000C9451001B
S11300600C9451000C94510011241FBECFEFD8E022
S1130070DEBFCDBF11E0A0E0B1E0E8E1F8E002C0EE
S113008005900D92A033B107D9F721E0A0E3B1E0C8
S113009001C01D92A537B207E1F70E941B010C9421
S11300A00A040C940000FC01408121E030E002C00D
S11300B0220F331F6A95E2F7242B20830895FC0155
S11300C0908121E030E002C0220F331F6A95E2F7ED
S11300D02095292320830895FC01408121E030E00C
S11300E002C0220F331F6A95E2F7242B2083089560
S11300F0299A85E08A95F1F7000029980895CF930D
S1130100C82F662311F0289A01C02898549A559A4A
S1130110569A579A5F985E985D985C98CC230CF435
S11301205F9AC6FD5E9AC5FD5D9AC4FD5C9A0E9405
S113013078005F985E985D985C98C3FD5F9AC2FDF5
S11301405E9AC1FD5D9AC0FD5C9A0E9478005C9A3B
S11301505D9A5E9A5F9A87EB9BE00197F1F700C086
S11301600000CF91089560E00E947F00089561111E
S113017004C080580E94B300089580540E94B300C4
S1130180089581E00E94B300089561E00E947F0019
S11301900895CF93DF93EC012196FC01808188239D
S11301A029F00E94C50089918111FBCFDF91CF9185
S11301B00895CF93C82F209A559A219A549A559A04
S11301C0569A579A8FEF99EF0197F1F700C0000004
S11301D05D9A5C9A0E9478008FE19EE40197F1F7A2
S11301E000C000000E9478008FEF90E00197F1F7C3
S11301F000C000000E9478008FEF90E00197F1F7B3
S113020000C000005C980E9478008FEF90E0019796
S1130210F1F700C0000088E20E94B30088E00E9469
S1130220B3000E94C10086E00E94B3008C2F0E949C
S1130230B300CF9108950E94EE0287E690E00E94F9
S11302409803E1E8F0E080818B7F80838081836084
S11302508083EFE6F0E0808181608083789480E0A1
S113026091E00E94C60387E690E00E949803ECE7C1
S1130270F0E080818064808380818E7F8083EAE7E0
S1130280F0E08081806880838081886080838081C1
S11302908760808365E084E290E00E94530065E01B
S11302A085E290E00E945F0064E084E290E00E94B6
S11302B0530064E085E290E00E945F00FFCF1F924C
S11302C00F920FB60F9211240F931F932F933F9306
S11302D04F935F936F937F938F939F93AF93BF934A
S11302E0EF93FF93CF93DF9300D0CDB7DEB780E2D7
S11302F090E29A838983EAE7F0E0808180648083D6
S113030088EB0E94FD0282E00E941B0389EB0E949D
S1130310FD020E942603082F0E943103182F0E9419
S11303203C038CE00E94D90060E080E00E94B700AA
S11303308EE191E00E94C9004AE0BE016F5F7F4FE9
S1130340802F90E00E94D503CE0101960E94C9003F
S113035084E291E00E94C9004AE0BE016F5F7F4FD2
S1130360812F90E00E94D503CE0101960E94C9001E
S113037086E291E00E94C90088EB0E94FD0280E0C1
S11303800E941B0389EB0E94FD020E942603082F92
S11303900E943103182F0E943C0361E080E00E9418
S11303A0B70088E291E00E94C9004AE0BE016F5F95
S11303B07F4F802F90E00E94D503CE0101960E94CA
S11303C0C90084E291E00E94C9004AE0BE016F5F67
S11303D07F4F812F90E00E94D503CE0101960E94A9
S11303E0C9008EE291E00E94C9000F900F90DF9146
S11303F0CF91FF91EF91BF91AF919F918F917F9199
S11304006F915F914F913F912F911F910F910F9099
S11304100FBE0F901F9018951F920F920FB60F9258
S113042011240F931F932F933F934F935F936F93D5
S11304307F938F939F93AF93BF93EF93FF93CF9348
S1130440DF9300D000D0CDB7DEB780E390E39A838A
S113045089839C838B8300917800109179004AE012
S1130460BE016F5F7F4FC8010E94D50360E08CE03E
S11304700E94B700CE0101960E94C900CE010196E8
S11304800E94C60382E291E00E94C6030D3221E07D
S11304901207D0F465E085E290E00E946C008FE9D9
S11304A09FE00197F1F700C0000065E085E290E06D
S11304B00E945F009FE72DEE80E091502040804035
S11304C0E1F700C0000039C0C8018D5291408C3260
S11304D09140D0F465E085E290E00E946C008FE6E4
S11304E097E10197F1F700C0000065E085E290E034
S11304F00E945F009FE327EE80E0915020408040FF
S1130500E1F700C0000019C065E085E290E00E94B8
S11305106C008FE39FE10197F1F700C0000065E0F4
S113052085E290E00E945F009FEF20EE80E0915012
S113053020408040E1F700C0000001501109043F51
S11305401140D0F464E085E290E00E946C008FE6F4
S113055097E10197F1F700C0000064E085E290E0C4
S11305600E945F009FE327EE80E09150204080408E
S1130570E1F700C0000019C064E085E290E00E9449
S11305806C008FE39FE10197F1F700C0000064E085
S113059085E290E00E945F009FEF20EE80E09150A2
S11305A020408040E1F700C000000F900F900F90B2
S11305B00F90DF91CF91FF91EF91BF91AF919F91F8
S11305C08F917F916F915F914F913F912F911F91E7
S11305D00F910F900FBE0F901F90189587B18F7CCD
S11305E087B988B1806388B9E9EBF0E080818C7FBA
S11305F0808388E98093B800089594EA9093BC00BE
S1130600ECEBF0E090819923ECF78093BB0084E855
S11306108093BC00ECEBF0E080818823ECF79091B0
S1130620B900987F983129F081E0903419F480E082
S1130630089580E008958093BB0084E88093BC0013
S1130640ECEBF0E080818823ECF7089584EC809350
S1130650BC00ECEBF0E080818823ECF78091BB00D8
S1130660089584E88093BC00ECEBF0E0808188235B
S1130670ECF78091BB00089584E98093BC00089551
S11306801F920F920FB60F9211242F938F939F9363
S1130690EF93FF938091C0002091C6008C71E0918C
S11306A03201EF5FEF7190913101E91739F0E09376
S11306B03201F0E0EB5CFE4F208301C082E09091B8
S11306C03001892B80933001FF91EF919F918F919D
S11306D02F910F900FBE0F901F9018951F920F929D
S11306E00FB60F9211248F939F93EF93FF939091E2
S11306F0340180913301981769F0E0913301EF5F81
S1130700EF71E0933301F0E0EB5AFE4F8081809368
S1130710C60005C0E1ECF0E080818F7D8083FF910D
S1130720EF919F918F910F900FBE0F901F9018958E
S1130730109234011092330110923201109231015F
S113074099231CF422E02093C00090789093C50074
S11307508093C40088E98093C10086E08093C2003E
S11307600895209134012F5F2F719091330129173F
S1130770E1F3E22FF0E0EB5AFE4F80832093340143
S1130780E1ECF0E08081806280830895CF93DF9371
S1130790EC018881882331F021960E94B10389916C
S11307A08111FBCFDF91CF910895BB274A3031F4FB
S11307B0992322F4BDE2909581959F4F0C94E10317
S11307C0BB27FB015527AA27880F991FAA1FA41727
S11307D010F0A41B83955051B9F7A05DAA3308F01B
S11307E0A95DA193009779F7B111B1931192CB014F
S11307F00C94FA03DC01FC01672F71917723E1F774
S1130800329704C07C916D9370836291AE17BF07D9
S10B0810C8F30895F894FFCF2A
S11308180D0A5363616E204932432D627573206655
S11308286F7220646576696365733A0D0A005465CE
S11308386D3A20002E00430048756D3A20002500CB
S9030000FC
