S01600007765617468657253746174696F6E2E737265633C
S11300000C9434000C9451000C9451000C94510045
S11300100C9451000C9451000C9451000C94510018
S11300200C9451000C9451000C9451000C94510008
S11300300C9451000C9465010C9451000C945100E3
S11300400C9451000C9451000C94D4020C940203AF
S11300500C9451000C941E020C9451000C94510009
S11300600C9451000C94510011241FBECFEFD8E022
S1130070DEBFCDBF11E0A0E0B1E0E0E4F7E002C0F4
S113008005900D92A034B107D9F721E0A0E4B1E0C6
S113009001C01D92A538B207E1F70E941B010C9420
S11300A09E030C940000FC01408121E030E002C07A
S11300B0220F331F6A95E2F7242B20830895FC0155
S11300C0908121E030E002C0220F331F6A95E2F7ED
S11300D02095292320830895FC01408121E030E00C
S11300E002C0220F331F6A95E2F724272083089564
S11300F0299A85E08A95F1F7000029980895CF930D
S1130100C82F662311F0289A01C02898549A559A4A
S1130110569A579A5F985E985D985C98CC230CF435
S11301205F9AC6FD5E9AC5FD5D9AC4FD5C9A0E9405
S113013078005F985E985D985C98C3FD5F9AC2FDF5
S11301405E9AC1FD5D9AC0FD5C9A0E9478005C9A3B
S11301505D9A5E9A5F9A87EB9BE00197F1F700C086
S11301600000CF91089560E00E947F00089561111E
S113017004C080580E94B300089580540E94B300C4
S1130180089581E00E94B300089561E00E947F0019
S11301900895CF93DF93EC012196FC01808188239D
S11301A029F00E94C50089918111FBCFDF91CF9185
S11301B00895CF93C82F209A559A219A549A559A04
S11301C0569A579A8FEF99EF0197F1F700C0000004
S11301D05D9A5C9A0E9478008FE19EE40197F1F7A2
S11301E000C000000E9478008FEF90E00197F1F7C3
S11301F000C000000E9478008FEF90E00197F1F7B3
S113020000C000005C980E9478008FEF90E0019796
S1130210F1F700C0000088E20E94B30088E00E9469
S1130220B3000E94C10086E00E94B3008C2F0E949C
S1130230B300CF9108958CE00E94D90060E080E083
S11302400E94B70080E091E00E94C90061E080E074
S11302500E94B70087E091E00E94C9000E948202D8
S113026087E690E00E942C03E1E8F0E080818B7F38
S11302708083808183608083EFE6F0E08081816009
S1130280808378948EE091E00E945A03ECE7F0E0DA
S113029080818064808380818E7F8083EAE7F0E0C0
S11302A0808180688083808188608083808187608A
S11302B0808365E084E290E00E94530065E085E27B
S11302C090E00E945F007894FFCF1F920F920FB6C8
S11302D00F9211240F931F932F933F934F935F9388
S11302E06F937F938F939F93AF93BF93EF93FF93FA
S11302F0CF93DF93CDB7DEB72897DEBFCDBF80E3C2
S113030090E39A8389831C821B82FE01359684E0E4
S1130310DF011D928A95E9F7EAE7F0E080818064C5
S113032080838CE291E00E945A0388EB0E94910240
S113033082E00E94AF020E94D00289EB0E949102E7
S11303400E94BA02082F0E94C502182F0E94D002F0
S11303504AE0BE016F5F7F4F802F90E00E946903E7
S113036060E086E00E94B700CE0101960E94C900B9
S113037087E391E00E94C9004AE0BE016F5F7F4FAE
S1130380812F90E00E946903CE0101960E94C9006A
S113039089E391E00E94C90088EB0E94910280E009
S11303A00E94AF020E94D00289EB0E9491020E9437
S11303B0BA02082F0E94C502182F0E94D0024AE0F8
S11303C0BE016F5F7F4F802F90E00E94690361E060
S11303D086E00E94B700CE0101960E94C90087E31F
S11303E091E00E94C9004AE0BE016F5F7F4F812FF8
S11303F090E00E946903CE0101960E94C9008CE33B
S113040091E00E94C90028960FB6F894DEBF0FBE93
S1130410CDBFDF91CF91FF91EF91BF91AF919F91AC
S11304208F917F916F915F914F913F912F911F9188
S11304300F910F900FBE0F901F9018951F920F925F
S11304400FB60F9211242F933F934F935F936F93A3
S11304507F938F939F93AF93BF93EF93FF93CF9328
S1130460DF9300D000D0CDB7DEB780E390E39A836A
S113047089839C838B8380917800909179004AE0F2
S1130480BE016F5F7F4F0E94690360E08CE00E94B1
S1130490B700CE0101960E94C900CE0101960E94C8
S11304A05A038CE091E00E945A038FE99FE0019780
S11304B0F1F700C0000065E084E290E00E946C0067
S11304C08FE99FE00197F1F700C0000065E084E246
S11304D090E00E946C000F900F900F900F90DF91AE
S11304E0CF91FF91EF91BF91AF919F918F917F91A8
S11304F06F915F914F913F912F910F900FBE0F908D
S11305001F90189587B18F7C87B988B1806388B9AB
S1130510E9EBF0E080818C7F808388E98093B800E8
S1130520089594EA9093BC00ECEBF0E09081992359
S1130530ECF78093BB0084E88093BC00ECEBF0E024
S113054080818823ECF79091B900987F983129F045
S113055081E0903419F480E0089580E00895809358
S1130560BB0084E88093BC00ECEBF0E0808188233E
S1130570ECF7089584EC8093BC00ECEBF0E0808110
S11305808823ECF78091BB00089584E88093BC0035
S1130590ECEBF0E080818823ECF78091BB000895B8
S11305A084E98093BC0008951F920F920FB60F92B6
S11305B011242F938F939F93EF93FF938091C00007
S11305C02091C6008C71E0914201EF5FEF71909130
S11305D04101E91739F0E0934201F0E0EB5BFE4F93
S11305E0208301C082E090914001892B80934001D7
S11305F0FF91EF919F918F912F910F900FBE0F90CC
S11306001F9018951F920F920FB60F9211248F937B
S11306109F93EF93FF939091440180914301981726
S113062069F0E0914301EF5FEF71E0934301F0E083
S1130630EB59FE4F80818093C60005C0E1ECF0E0E9
S113064080818F7D8083FF91EF919F918F910F9097
S11306500FBE0F901F901895109244011092430101
S1130660109242011092410199231CF422E020933C
S1130670C00090789093C5008093C40088E980936B
S1130680C10086E08093C2000895209144012F5F49
S11306902F71909143012917E1F3E22FF0E0EB5918
S11306A0FE4F808320934401E1ECF0E0808180627E
S11306B080830895CF93DF93EC018881882331F000
S11306C021960E94450389918111FBCFDF91CF913F
S11306D00895BB274A3031F4992322F4BDE2909562
S11306E081959F4F0C947503BB27FB015527AA27BF
S11306F0880F991FAA1FA41710F0A41B83955051AB
S1130700B9F7A05DAA3308F0A95DA193009779F722
S1130710B111B1931192CB010C948E03DC01FC0155
S1130720672F71917723E1F7329704C07C916D9321
S113073070836291AE17BF07C8F30895F894FFCF92
S113074054656D703A200048756D3A2020000D0AFA
S11307505363616E204932432D62757320666F7254
S113076020646576696365733A0D0A0052656164B5
S1130770696E67200D0A002E00204300202500002A
S9030000FC
